:020000040000FA
:020000009F2837
:040002000034003492
:08000800831203138C1D1C2858
:100010008C118316031314191C28141C1C28941EFD
:100020001928831203131308BE2083160313141018
:100030001C288312031313080900820700340134BB
:1000400002340334043405340634073408340934E4
:100050000A340B340C340D340E340F341034113494
:100060001234133414341534163417341834820708
:1000700000340134023403340434093408340734BE
:10008000063405340A340B340C340D340E34133476
:100090001234113410340F34143415341634173428
:1000A000183482070034013405340A34063402342B
:1000B000033407340B340F34143410340C34083444
:1000C000043409340D3411341534163412340E341A
:1000D0001334173418348207003405340A340F34CB
:1000E0001434013406340B3410341534023407341C
:1000F0000C3411341634033408340D3412341734EC
:10010000043409340E3413341834820701340234B1
:100110000434083410342034403480340134023440
:100120000434083410342034403480340134023430
:1001300004340834103420344034803401348316BD
:10014000031788018901831603138501860188013D
:100150008901183087008312031387018601850106
:1001600088018901831603138C15C0308B00C030C1
:10017000B0218B210B178B176300BA28A10021082F
:10018000073C031CCF282108852083120313870115
:1001900086018501880189018500972108002108D1
:1001A0000F3C031CDF2821088520831203138701DD
:1001B00086018501880189018600972108002108B0
:1001C000173C031CEF2821088520831203138701A5
:1001D000860185018801890188009721080021088E
:1001E000183C031DFE282108852083120313870174
:1001F0008601850188018901091497212108303C75
:10020000031D0429392138292108313C031D0A29FD
:10021000552138292108323C031D10297021382925
:100220002108503C031D17291F308500382921085B
:10023000513C031D2029E030850003308600382919
:100240002108523C031D27297C30860038292108CB
:10025000533C031D3029803086000F308800382938
:100260002108543C031D3829F030880001308900F2
:1002700008000030A40024083720BE20A40A240867
:10028000193C031D3B291830A40024083720BE2048
:10029000A4032408FF3C031D45298312031387018F
:1002A00086018501880189010800A40124085120E4
:1002B000BE20A40A2408193C031D56291830A400A6
:1002C00024085120BE20A4032408FF3C031D6029FC
:1002D00083120313870186018501880189010800C3
:1002E000A40124086B20BE20A40A2408193C031D85
:1002F00071291830A40024086B20BE20A403240810
:10030000FF3C031D7B2983120313870186018501AE
:10031000880189010800831203131430F200FA30B7
:10032000F1000000F10B9129F20B8F2908008312D4
:1003300003133230F3008B210000F30B9B290800DC
:100340008316031387150716093093008030940035
:10035000910183120313283094008C118C11080032
:1003600083160313871507169300803094009101BC
:1003700083120313263094008C118C110800831211
:1003800003138C1183160313111483120313111812
:10039000C7290800831203138C11000893008C1DD9
:1003A000CF2983160313111BD329080083120313CB
:1003B0008C11831603131115831203138C1DDE2970
:1003C0000800BF21831203138000CA218312031384
:0203D000080023
:02400E00F4209C
:02401000FF3E71
:00000001FF
