:020000040000FA
:04000200E8200528C5
:080008000728630005280B180E
:100010000A282F298B1106090B108039C3004308C9
:10002000C31B662866288207E234E134C334A33454
:100030006334820700340134023403340434053459
:1000400006340734083409340A340B340C340D34C4
:100050000E340F3410341134123413341434153474
:100060001634173418348207043409340E34133428
:1000700018340034003400340034003400340034C8
:1000800000340034003400340034003400340034D0
:1000900000340034003400340034003401340234BD
:1000A00003340434053406340734083409340A347C
:1000B0000B340C340D340E340F341034113412342C
:1000C00013341434153416341734183483160313C8
:1000D00096138312031389142F21831203138B2089
:1000E0002521A4202521860179207028450846076E
:1000F00008000310B10D3108203C031D8B2801308E
:10010000B1000310B00D3008203C031D8B280130D6
:10011000B0002F2113293108880091203008850074
:1001200008004608503EA30080001F21252108003A
:10013000031C9C28192003140800252106081F3CD5
:10014000031D9D28870108008312031391200030AE
:10015000A300C00037088700061CC428A30A861C19
:10016000C428A30A061DC428A30A861DC428A30AFE
:10017000061EC428A30A240823020318C328C00AA1
:1001800040081320AB28A4282308A5001F21DC2049
:1001900076203320A5020319CE28E528C60A460892
:1001A000053C031DD628C6010530C5078601E021A0
:1001B00023081F21DC20080083120313FF30C10035
:1001C00025210000C10BE0280800A721DC20A4287D
:1001D00083160317880189018316031385019F3055
:1001E000860018308700880189019617831203134F
:1001F0008701860185018801043089005E21831210
:1002000003130130B000B100B400B500B6001930DE
:10021000B30080001930A4000030A700C500C6005C
:10022000C400FA30B7008316031396178312031322
:1002300086018B118B1706080B108B150900C03037
:100240009F2123089F21942108001430A000FA3038
:10025000A1000000A10B2929A00B272908004408B0
:10026000003C031D392930308000A3001F21532199
:100270004C294408013C031D432931308000A30070
:100280001F2153214C294408023C031D43293230CD
:100290008000A3001F215321C40A4408033C031D0E
:1002A0005229C4010900DC20DC20DC20DC20DC2019
:1002B000DC20DC20DC20DC20DC200800831603139B
:1002C000871507160930930080309400910183123E
:1002D0000313283094008C118C110800831603132B
:1002E0008715071693008030940091018312031341
:1002F000263094008C118C110800831203138C118A
:10030000831603131114831203131118852908008F
:10031000831203138C11000893008C1D8D29831602
:100320000313111B91290800831203138C118316E8
:1003300003131115831203138C1D9C2908007D21C2
:10034000831203138000882183120313080083168D
:100350000313D4309200BB21C821FF30D521E030F7
:10036000D121FF30D521EE30D121FF30D521FF3012
:10037000D521CD210800831603130715831203131B
:100380003C3097003F3095008C10033092000800FD
:10039000831603130711121508008316031307159C
:1003A0000800831603139200080083120313A000B1
:1003B000FA30A1000000A10BDA29A00BD82908000F
:1003C00083160313EE309200BB21C821FF30D521E4
:1003D000D430D121FF30D521BC30D121FF30D521FF
:1003E0009630D521EE30D1215030D521BC30D121ED
:0C03F000FF30D5219630D521CD2108002A
:0403FC000034003495
:02400E00F4209C
:02401000FF3E71
:00000001FF
